:100000000C9436020C9453020C9453020C94530239
:100010000C9453020C9453020C9453020C9453020C
:100020000C9453020C9453020C9453020C945302FC
:100030000C9453020C94D3030C9453020C9453026B
:100040000C9453020C9453020C9453020C945302DC
:100050000C9453020C9453020C9453020C945302CC
:100060000C9453020C945302080800000000000096
:10007000000000003E41554155493E003E7F6B7FE8
:100080006B773E0022777F7F3E1C0800081C3E7F76
:100090003E1C0800081C2A7F2A081C00081C3E7F02
:1000A0003E081C00001C3E3E3E1C00FFFFE3C1C199
:1000B000C1E3FF00001C2222221C00FFFFE3DDDD64
:1000C000DDE3FF000F03053948483000083E081CF7
:1000D00022221C0018141010307060000F19111328
:1000E00037766000082A1C771C2A080060787E7F1B
:1000F0007E786000030F3F7F3F0F0300081C2A0833
:100100002A1C080066666666006666003F65653DF7
:10011000050505000C324824124C30000000000098
:100120007F7F7F00081C2A082A1C3E00081C3E7F97
:100130001C1C1C001C1C1C7F3E1C0800080C7E7F25
:100140007E0C080008183F7F3F1808000000707000
:10015000707F7F000014227F22140000081C1C3EC8
:100160003E7F7F007F7F3E3E1C1C08000000000099
:1001700000000000183C3C18180018003636140027
:100180000000000036367F367F363600081E201C01
:10019000023C080060660C18306606003C663C288D
:1001A00065663F001818183000000000603018180D
:1001B00018306000060C1818180C060000361C7F5A
:1001C0001C3600000008083E08080000000000304F
:1001D000303060000000003C000000000000000023
:1001E0000060600000060C18306000003C666E760F
:1001F00066663C001818381818187E003C66060C15
:1002000030607E003C66061C06663C000C1C2C4CD4
:100210007E0C0C007E607C0606663C003C66607CC2
:1002200066663C007E660C0C181818003C66663C3E
:1002300066663C003C66663E06663C000018180098
:10024000181800000018180018183000060C183094
:10025000180C060000003C003C0000006030180C48
:10026000183060003C66061C1800180038445C58C2
:10027000423C00003C66667E666666007C66667C84
:1002800066667C003C66606060663C007C66666614
:1002900066667C007E60607C60607E007E60607C64
:1002A000606060003C6660606E663C006666667E0C
:1002B000666666003C18181818183C001E0C0C0CDA
:1002C0006C6C3800666C7870786C6600606060609A
:1002D00060607E0063777F6B6363630063737B6F33
:1002E000676363003C66666666663C007C666666BD
:1002F0007C6060003C6666666E3C06007C66667CE0
:10030000786C66003C66603C06663C007E5A1818B5
:10031000181818006666666666663E00666666665B
:10032000663C18006363636B7F7763006363361C0E
:10033000366363006666663C181818007E060C1863
:1003400030607E001E18181818181E000060301843
:100350000C060000781818181818780008142241A4
:10036000000000000000000000007F000C0C0600F0
:100370000000000000003C063E663E006060607CBD
:1003800066667C0000003C6660663C000606063E31
:1003900066663E0000003C667E603C001C363030E5
:1003A0007C303000003E66663E063C006060607C4B
:1003B000666666000018001818183C000C000C0C4B
:1003C0006C6C38006060666C786C660018181818E1
:1003D00018181800000063777F6B6B0000007C7EAC
:1003E0006666660000003C6666663C00007C6666E9
:1003F0007C606000003C6C6C3C0D0F0000007C6673
:100400006660600000003E403C027C000018187EE0
:10041000181818000000666666663E000000006658
:10042000663C18000000636B6B6B3E000000663C8E
:10043000183C6600000066663E063C0000003C0C6E
:1004400018303C000E18183018180E001818180034
:10045000181818007018180C1818700000003A6C62
:1004600000000000081C366341417F0011241FBEBC
:10047000CFEFD8E0DEBFCDBF11E0A0E0B1E0E8E70C
:10048000F8E002C005900D92A436B107D9F721E03B
:10049000A4E6B1E001C01D92AA36B207E1F70E94BE
:1004A000FA030C943A040C940000E82FF92F808191
:1004B0008BB90000880F6A958BB9880F31960000C0
:1004C0008BB900000000880F8BB9880F0000000076
:1004D0008BB9880F000000008BB9880F0000000066
:1004E0008BB9880F603000008BB909F7880F8BB982
:1004F00008951F93CF93DF9380911301909114017E
:1005000080978130914008F03DC020916901809131
:10051000640190916501BC016D5F7F4FA22FB0E037
:10052000A85EBE4FC1E0D1E04DE051E03D91FB013E
:1005300018E03102E00DF11D1124E859FF4FE4915C
:10054000E9934C175D0791F7309168013F5F309355
:1005500068013F3029F4245F2093690110926801FB
:1005600001968830910529F090936501809364018C
:1005700004C010926501109264016CE081E091E08A
:100580000E9455028091130190911401863321E05D
:10059000920791F423E933E0309317012093160179
:1005A00020E230E0309389002093880010926501AA
:1005B0001092640110926901019690931401809346
:1005C0001301DF91CF911F9108951F93CF93DF9374
:1005D0008091130190911401885591408130914090
:1005E00008F03EC000002091660180916401909166
:1005F0006501BC016D5F7F4FA22FB0E0A85EBE4FCA
:10060000C1E0D1E04DE051E03D91FB0118E0310245
:10061000E00DF11D1124E859FF4FE491E9934C17C7
:100620005D0791F7309167013F5F309367013F307D
:1006300029F4245F209366011092670101968830A7
:10064000910529F0909365018093640104C0109294
:100650006501109264016CE081E091E00E94550216
:1006600080911301909114018E3622E0920761F47B
:100670002DE433E0309317012093160110926501A9
:100680001092640110926601019690931401809378
:100690001301DF91CF911F910895809115018A3048
:1006A000A1F138F4882321F18530C9F520EE31E03D
:1006B0002EC08F3089F1803191F580E490E09093E5
:1006C0008900809388008DEF93E09093870080935A
:1006D000860087E090E090931401809313011092BC
:1006E000150189E792E09093170180931601089510
:1006F00020E230E030938900209388002DEF31E034
:1007000030938700209386000AC020E230E03093C7
:1007100089002093880003C020E430E0F8CF8F5F89
:1007200080931501089580911501843079F178F452
:10073000811135C020E230E0309389002093880099
:100740002DEF31E0309387002093860028C0893058
:1007500001F18E3021F580E490E090938900809340
:1007600088008DEF93E090938700809386008FE35D
:1007700091E0909314018093130185EE92E09093A1
:1007800017018093160110921501089520EE31E0B3
:1007900002C020E230E030938900209388008F5F10
:1007A0008093150108951F920F920FB60F92112496
:1007B0002F933F934F935F936F937F938F939F9369
:1007C000AF93BF93EF93FF93E0911601F091170160
:1007D0000995FF91EF91BF91AF919F918F917F917B
:1007E0006F915F914F913F912F910F900FBE0F909E
:1007F0001F901895F894219A579A259A8091800015
:10080000806C809380008091800082608093800063
:100810008091810088618093810080E490E09093D2
:100820008900809388008DEF93E0909387008093F8
:1008300086008091810081608093810080916F00AB
:10084000816080936F0078942FEF81EE94E02150C7
:1008500080409040E1F700C000002D9A2FEF81EE1C
:1008600094E0215080409040E1F700C0000085B145
:0808700015B8EACFF894FFCFA0
:100878001500FF00FF00FF00FF00FF00FF00FF0062
:10088800FF00000000104D03546865206669746E0F
:100898006573736772616D2070616365722074653A
:1008A80073742069732061206D756C74692D73747D
:1008B800616765206165726F626963206669746E3D
:1008C80065737320636170616369747920746573FB
:0408D800742E000179
:00000001FF
