:100000000C9434000C9449000C9449000C94490061
:100010000C9449000C9449000C9449000C9449003C
:100020000C9449000C9449000C9449000C9449002C
:100030000C9449000C949F010C9449000C944900C5
:100040000C9449000C9449000C9449000C9449000C
:100050000C9449000C9449000C9449000C944900FC
:100060000C9449000C94490011241FBECFEFD8E036
:10007000DEBFCDBF11E0A0E0B1E0EEE2F4E002C0EF
:1000800005900D92A833B107D9F70E94C6010C94D0
:1000900015020C940000809134018530E9F1F0F0F4
:1000A0008A3091F0803161F420E130E030938900B2
:1000B0002093880020E032E0309387002093860070
:1000C00081508093340108952AEB31E03093890008
:1000D0002093880081508093340108958111F0CFDE
:1000E0002AE130E0309389002093880020E034E05A
:1000F000309387002093860027E030E0309333016F
:100100002093320121EE30E0309336012093350107
:10011000815080933401089520E130E030938900CC
:100120002093880081508093340108958091340198
:100130008430E9F1F0F0893091F08E3061F420E103
:1001400030E0309389002093880020E032E0309343
:1001500087002093860081508093340108952AEB14
:1001600031E03093890020938800815080933401DE
:1001700008958111F0CF2AE130E030938900209377
:10018000880020E034E030938700209386002FE33E
:1001900031E0309333012093320120E431E0309399
:1001A000360120933501815080933401089520E178
:1001B00030E030938900209388008150809334018F
:1001C000089580913201909133019C0128513109A9
:1001D0002F31314030F001969093330180933201FA
:1001E00008958AE38A95F1F700C09CE0E92FF0E0DA
:1001F000E050FF4F80818BB900000000000000003C
:10020000880F8BB90000000000000000880F8BB938
:100210000000000000000000880F8BB99A950000D4
:1002200000000000880F8BB90000000000000000F3
:10023000880F8BB90000000000000000880F8BB908
:100240000000000000000000880F8BB99111CECF94
:100250008091320190913301863321E0920709F0B9
:10026000BACF26E930E030933601209335012EE0F5
:1002700020933401019690933301809332010895C5
:1002800080913201909133019C01205531402F31F2
:10029000314030F0019690933301809332010895FC
:1002A0008AE38A95F1F700C09CE0E92FF0E0E05086
:1002B000FF4F80818BB90000000000000000880F14
:1002C0008BB90000000000000000880F8BB900000F
:1002D000000000000000880F8BB99A950000000014
:1002E0000000880F8BB90000000000000000880F9C
:1002F0008BB90000000000000000880F8BB90000DF
:10030000000000000000880F8BB99111CECF8091C2
:100310003201909133018E3622E0920709F0BACF74
:100320002BE430E0309336012093350120E1209317
:1003300034010196909333018093320108951F9206
:100340000F920FB60F9211242F933F934F935F9309
:100350006F937F938F939F93AF93BF93EF93FF938D
:10036000E0913501F09136010995FF91EF91BF9130
:10037000AF919F918F917F916F915F914F913F913D
:100380002F910F900FBE0F901F90189548E150E0ED
:100390006AEA70E080E091E00E940E02F894219AEF
:1003A000579A259A80918000806C8093800080917C
:1003B00080008260809380008091810088618093BA
:1003C00081008AE190E0909389008093880080E02A
:1003D00094E09093870080938600809181008160F3
:1003E0008093810080916F00816080936F0078948A
:1003F0002FEF89E698E1215080409040E1F700C05E
:1004000000002D9A2FEF89E698E12150804090401E
:10041000E1F700C0000085B115B8EACFDC0101C0EA
:0E0420006D9341505040E0F70895F894FFCFDF
:10042E0000FF00FF00FF00FF00FF00FF00FF00FFC6
:10043E0000000000000000000000000000000000AE
:10044E00000000000000000000000000000000009E
:08045E0000010000104B00003A
:00000001FF
