:100000000C9434000C9449000C9449000C94490061
:100010000C9449000C9449000C9449000C9449003C
:100020000C9449000C9449000C9449000C9449002C
:100030000C9449000C9453010C9449000C94490011
:100040000C9449000C9449000C9449000C9449000C
:100050000C9449000C9449000C9449000C944900FC
:100060000C9449000C94490011241FBECFEFD8E036
:10007000DEBFCDBF11E0A0E0B1E0E8E8F3E002C0F0
:1000800005900D92AA33B107D9F70E947A010C941A
:10009000C2010C940000E82FF92F80818BB9000079
:1000A000880F6A958BB9880F319600008BB90000D4
:1000B0000000880F8BB9880F000000008BB9880FF3
:1000C000000000008BB9880F000000008BB9880F7A
:1000D000603000008BB909F70895809135018530B3
:1000E00081F1D8F4811133C02AE130E030938900E6
:1000F0002093880020E034E030938700209386002E
:1001000027E030E0309334012093330129EE30E0D2
:1001100030933701209336011AC08A3079F080314C
:10012000B1F420E130E0309389002093880020E092
:1001300032E0309387002093860009C02AEB31E03B
:1001400002C020E130E03093890020938800815084
:1001500080933501089580913501843081F1D8F480
:10016000811133C02AE130E0309389002093880068
:1001700020E034E030938700209386002FE331E0C5
:1001800030933401209333012EE131E03093370175
:10019000209336011AC0893079F08E30B1F420E115
:1001A00030E0309389002093880020E032E03093E3
:1001B00087002093860009C02AEB31E002C020E1CD
:1001C00030E030938900209388008150809335017E
:1001D000089540913301509134018091000190E0E5
:1001E0009C01285E3F4F4217530788F026E331E019
:1001F000B901681B790B6417750748F075E37A95A8
:10020000F1F7000062E181E091E00E944B008091F3
:10021000330190913401863321E0920749F42BEAAF
:1002200030E030933701209336012EE020933501E2
:1002300001969093340180933301089540913301E6
:10024000509134018091000190E09C01205B3E4F71
:100250004217530788F02EE632E0B901681B790B8C
:100260006417750748F075E37A95F1F7000062E1CD
:1002700081E091E00E944B00809133019091340124
:100280008E3622E0920749F42DE630E030933701B4
:100290002093360120E1209335010196909334019B
:1002A0008093330108951F920F920FB60F9211247D
:1002B0002F933F934F935F936F937F938F939F936E
:1002C000AF93BF93EF93FF93E0913601F091370125
:1002D0000995FF91EF91BF91AF919F918F917F9180
:1002E0006F915F914F913F912F910F900FBE0F90A3
:1002F0001F901895E1E0F1E08AEA819321E0E9316D
:10030000F207D9F7F894219A579A259A809180009C
:10031000806C809380008091800082608093800058
:10032000809181008861809381008AE190E09093C0
:1003300089008093880080E094E090938700809308
:1003400086008091810081608093810080916F00A0
:10035000816080936F0078948FEF99E628E1815057
:1003600090402040E1F700C000002D9A8FEF99E601
:1003700028E1815090402040E1F700C0000085B1A5
:0803800015B8EACFF894FFCF95
:100388000C00FF00FF00FF00FF00FF00FF00FF0060
:10039800FF00000000000000000000000000000056
:1003A8000000000000000000000000000000000045
:0A03B8000001010000106D000100BB
:00000001FF
