:100000000C9436020C9453020C9453020C94530239
:100010000C9453020C9453020C9453020C9453020C
:100020000C9453020C9453020C9453020C945302FC
:100030000C9453020C949C030C9453020C945302A2
:100040000C9453020C9453020C9453020C945302DC
:100050000C9453020C9453020C9453020C945302CC
:100060000C9453020C945302080800000000000096
:10007000000000003E41554155493E003E7F6B7FE8
:100080006B773E0022777F7F3E1C0800081C3E7F76
:100090003E1C0800081C2A7F2A081C00081C3E7F02
:1000A0003E081C00001C3E3E3E1C00FFFFE3C1C199
:1000B000C1E3FF00001C2222221C00FFFFE3DDDD64
:1000C000DDE3FF000F03053948483000083E081CF7
:1000D00022221C0018141010307060000F19111328
:1000E00037766000082A1C771C2A080060787E7F1B
:1000F0007E786000030F3F7F3F0F0300081C2A0833
:100100002A1C080066666666006666003F65653DF7
:10011000050505000C324824124C30000000000098
:100120007F7F7F00081C2A082A1C3E00081C3E7F97
:100130001C1C1C001C1C1C7F3E1C0800080C7E7F25
:100140007E0C080008183F7F3F1808000000707000
:10015000707F7F000014227F22140000081C1C3EC8
:100160003E7F7F007F7F3E3E1C1C08000000000099
:1001700000000000183C3C18180018003636140027
:100180000000000036367F367F363600081E201C01
:10019000023C080060660C18306606003C663C288D
:1001A00065663F001818183000000000603018180D
:1001B00018306000060C1818180C060000361C7F5A
:1001C0001C3600000008083E08080000000000304F
:1001D000303060000000003C000000000000000023
:1001E0000060600000060C18306000003C666E760F
:1001F00066663C001818381818187E003C66060C15
:1002000030607E003C66061C06663C000C1C2C4CD4
:100210007E0C0C007E607C0606663C003C66607CC2
:1002200066663C007E660C0C181818003C66663C3E
:1002300066663C003C66663E06663C000018180098
:10024000181800000018180018183000060C183094
:10025000180C060000003C003C0000006030180C48
:10026000183060003C66061C1800180038445C58C2
:10027000423C00003C66667E666666007C66667C84
:1002800066667C003C66606060663C007C66666614
:1002900066667C007E60607C60607E007E60607C64
:1002A000606060003C6660606E663C006666667E0C
:1002B000666666003C18181818183C001E0C0C0CDA
:1002C0006C6C3800666C7870786C6600606060609A
:1002D00060607E0063777F6B6363630063737B6F33
:1002E000676363003C66666666663C007C666666BD
:1002F0007C6060003C6666666E3C06007C66667CE0
:10030000786C66003C66603C06663C007E5A1818B5
:10031000181818006666666666663E00666666665B
:10032000663C18006363636B7F7763006363361C0E
:10033000366363006666663C181818007E060C1863
:1003400030607E001E18181818181E000060301843
:100350000C060000781818181818780008142241A4
:10036000000000000000000000007F000C0C0600F0
:100370000000000000003C063E663E006060607CBD
:1003800066667C0000003C6660663C000606063E31
:1003900066663E0000003C667E603C001C363030E5
:1003A0007C303000003E66663E063C006060607C4B
:1003B000666666000018001818183C000C000C0C4B
:1003C0006C6C38006060666C786C660018181818E1
:1003D00018181800000063777F6B6B0000007C7EAC
:1003E0006666660000003C6666663C00007C6666E9
:1003F0007C606000003C6C6C3C0D0F0000007C6673
:100400006660600000003E403C027C000018187EE0
:10041000181818000000666666663E000000006658
:10042000663C18000000636B6B6B3E000000663C8E
:10043000183C6600000066663E063C0000003C0C6E
:1004400018303C000E18183018180E001818180034
:10045000181818007018180C1818700000003A6C62
:1004600000000000081C366341417F0011241FBEBC
:10047000CFEFD8E0DEBFCDBF11E0A0E0B1E0E0E417
:10048000F8E002C005900D92A034B107D9F721E041
:10049000A0E4B1E001C01D92A434B207E1F70E94CC
:1004A000C3030C941E040C940000E82FF92F8081E4
:1004B0008BB90000880F6A958BB9880F31960000C0
:1004C0008BB900000000880F8BB9880F0000000076
:1004D0008BB9880F000000008BB9880F0000000066
:1004E0008BB9880F603000008BB909F708958091AF
:1004F00029018A30D1F050F48823F1F020E130E076
:100500008530A9F081508093290108958031D1F779
:1005100020E130E0309389002093880020E032E031
:100520003093870020938600EDCF2AEB31E03093A3
:10053000890020938800E6CF2AE130E030938900DB
:100540002093880020E034E03093870020938600D9
:1005500027E030E0309328012093270123EF32E099
:1005600030932B0120932A01CDCF8091290189302E
:10057000D1F050F48823F1F020E130E08430A9F08C
:1005800081508093290108958E30D1F720E130E029
:10059000309389002093880020E032E03093870078
:1005A00020938600EDCF2AEB31E030938900209331
:1005B0008800E6CF2AE130E030938900209388005C
:1005C00020E034E030938700209386002FE331E071
:1005D000309328012093270128E433E030932B0146
:1005E00020932A01CDCF409127015091280180917D
:1005F000000190E09C01285E3F4F4217530768F1CD
:1006000025E331E0281B390B2417350730F10000B2
:100610002AE12A95F1F700C0209140013091410173
:100620008091420190914301820F931FFC01E85990
:10063000FF4FE491E0930201FC01E059FF4FE49188
:10064000E09303012F5F3F4F30934101209340011E
:1006500062E181E091E00E94550280912701909132
:100660002801863321E0920769F425EB32E03093CC
:100670002B0120932A012EE02093290110924101A1
:1006800010924001019690932801809327010895CC
:1006900040912701509128018091000190E09C0138
:1006A000205B3E4F4217530760F12EE632E0281BD5
:1006B000390B2417350728F12AE12A95F1F700C0F4
:1006C000209140013091410180914201909143017C
:1006D000820F931FFC01E859FF4FE491E093020160
:1006E000FC01E059FF4FE491E09303012F5F3F4F7E
:1006F000309341012093400162E181E091E00E944A
:10070000550280912701909128018E3622E09207B0
:1007100069F427E732E030932B0120932A0120E18E
:10072000209329011092410110924001019690936B
:1007300028018093270108951F920F920FB60F9200
:1007400011242F933F934F935F936F937F938F93D6
:100750009F93AF93BF93EF93FF93E0912A01F091A2
:100760002B010995FF91EF91BF91AF919F918F91CF
:100770007F916F915F914F913F912F910F900FBE9D
:100780000F901F90189542E150E06AEA70E081E016
:1007900091E00E941704F894219A579A259A809123
:1007A0008000806C809380008091800082608093C4
:1007B0008000809181008861809381008AE190E0CF
:1007C000909389008093880080E094E09093870064
:1007D0008093860080918100816080938100809168
:1007E0006F00816080936F0078948FE19EE40197A1
:1007F000F1F700C000002D9A8091420190914301D1
:10080000019690934301809342018FE19EE401970A
:10081000F1F700C0000085B115B8809142019091B8
:10082000430101969093430180934201DECFDC01A6
:1008300001C06D9341505040E0F70895F894FFCF08
:100840001800FF00FF00FF00FF00FF00FF00FF0097
:10085000FF00000000000000000000000000000099
:1008600000000000000101000010770268656C6C58
:100870006F00000000000000000000000000010008
:00000001FF
