:100000000C9434020C9451020C9451020C94510241
:100010000C9451020C9451020C9451020C94510214
:100020000C9451020C9451020C9451020C94510204
:100030000C9451020C9477030C9451020C945102CD
:100040000C9451020C9451020C9451020C945102E4
:100050000C9451020C9451020C9451020C945102D4
:100060000C9451020C9451020000000000000000AA
:100070000000000000000000000000000000000080
:100080000000000000000000001836360C001C06BE
:1000900018060000000000603E0C1E1E383F1C3F8A
:1000A0001E1E00001800061E3E0C3F3C1F7F7F3CBA
:1000B000331E78670F63631C3F1E3F1E3F3333635D
:1000C00063337F1E031E08000C00070038001C006D
:1000D000070C30070E0000000000000008000000C0
:1000E0000000003818076E0000000000000000004B
:1000F0000000000000000000000000000000000000
:1001000000000000000000000000000000000000EF
:1001100000000000000000000000000000000000DF
:1001200000000000000000000000000000000000CF
:10046000000000000000000011241FBECFEFD8E004
:10047000DEBFCDBF11E0A0E0B1E0E6E7F8E002C0EA
:1004800005900D92A034B107D9F721E0A0E4B1E0C6
:1004900001C01D92A534B207E1F70E94DC030C9461
:1004A00039040C940000E82FF92F80818BB90000EB
:1004B000880F6A958BB9880F319600008BB90000C0
:1004C0000000880F8BB9880F000000008BB9880FDF
:1004D000000000008BB9880F000000008BB9880F66
:1004E000603000008BB909F7880F8BB908958091AF
:1004F00029018A30D1F050F48823F1F020E130E076
:100500008530A9F081508093290108958031D1F779
:1005100020E130E0309389002093880020E032E031
:100520003093870020938600EDCF2AEB31E03093A3
:10053000890020938800E6CF2AE130E030938900DB
:100540002093880020E034E03093870020938600D9
:1005500027E030E0309328012093270125EB32E09B
:1005600030932B0120932A01CDCFCF93DF9340917D
:100570002701509128018091000190E09C01285EA4
:100580003F4F4217530780F125E331E0281B390B19
:100590002417350748F18091400190914101AC0149
:1005A00056954795ACE2B1E0C1E0D1E028E331E0F7
:1005B000ED9168E0E602F0011124E40FF51FE8591F
:1005C000FF4FE491E9932A173B0791F79C012F5FB6
:1005D0003F4F0F9731F130934101209340016CE080
:1005E00081E091E00E9453028091270190912801BF
:1005F000863321E0920769F427E732E030932B013C
:1006000020932A012EE0209329011092410110929B
:10061000400101969093280180932701DF91CF91AB
:1006200008951092410110924001D9CFCF93DF93EA
:1006300040912701509128018091000190E09C0198
:10064000205B3E4F4217530780F12EE632E0281B15
:10065000390B2417350748F18091400190914101F1
:10066000ACE2B1E0C1E0D1E028E331E0AC014D5FA4
:100670005F4FED9168E0E602F0011124E40FF51FF1
:10068000E859FF4FE491E9932A173B0791F79C0142
:100690002F5F3F4F0F9731F130934101209340017D
:1006A0006CE081E091E00E945302809127019091DB
:1006B00028018E3622E0920769F427E732E0309372
:1006C0002B0120932A0120E120932901109241015E
:1006D0001092400101969093280180932701DF91A9
:1006E000CF9108951092410110924001D9CF1F92ED
:1006F0000F920FB60F9211242F933F934F935F9356
:100700006F937F938F939F93AF93BF93EF93FF93D9
:10071000E0912A01F0912B010995FF91EF91BF9192
:10072000AF919F918F917F916F915F914F913F9189
:100730002F910F900FBE0F901F9018958091290157
:100740008930D1F050F48823F1F020E130E084309A
:10075000A9F081508093290108958E30D1F720E1CE
:1007600030E0309389002093880020E032E030931D
:10077000870020938600EDCF2AEB31E0309389008B
:1007800020938800E6CF2AE130E03093890020935F
:10079000880020E034E030938700209386002FE328
:1007A00031E0309328012093270126E133E0309394
:1007B0002B0120932A01CDCF42E150E06AEA70E09C
:1007C00081E091E00E943204F894219A579A259A88
:1007D00080918000806C8093800080918000826096
:1007E00080938000809181008861809381008AE1FC
:1007F00090E0909389008093880080E094E090934B
:1008000087008093860080918100816080938100C1
:1008100080916F00816080936F0078942FEF81EE5C
:1008200094E0215080409040E1F700C000002D9AF4
:10083000809131018F5F809331012FEF81EE94E041
:10084000215080409040E1F700C0000085B115B80C
:1008500080914201909143010196909343018093CE
:100860004201DCCFDC0101C06D9341505040E0F704
:060870000895F894FFCF8B
:100876002000FF00FF00FF00FF00FF00FF00FF0059
:10088600FF00000000000000000000000000000063
:1008960000000000000101000010770248656C6C42
:1008A6006F000000000000000000000000000100D2
:00000001FF
